{
  "_format": "hh3-artifact-1",
  "contractName": "LandRegistry",
  "sourceName": "contracts/LandRegistry.sol",
  "abi": [
    {
      "inputs": [
        {
          "internalType": "uint256",
          "name": "",
          "type": "uint256"
        }
      ],
      "name": "lands",
      "outputs": [
        {
          "internalType": "uint256",
          "name": "id",
          "type": "uint256"
        },
        {
          "internalType": "string",
          "name": "location",
          "type": "string"
        },
        {
          "internalType": "uint256",
          "name": "area",
          "type": "uint256"
        },
        {
          "internalType": "address",
          "name": "owner",
          "type": "address"
        },
        {
          "internalType": "bool",
          "name": "isForSale",
          "type": "bool"
        }
      ],
      "stateMutability": "view",
      "type": "function"
    },
    {
      "inputs": [
        {
          "internalType": "uint256",
          "name": "_id",
          "type": "uint256"
        },
        {
          "internalType": "string",
          "name": "_location",
          "type": "string"
        },
        {
          "internalType": "uint256",
          "name": "_area",
          "type": "uint256"
        }
      ],
      "name": "registerLand",
      "outputs": [],
      "stateMutability": "nonpayable",
      "type": "function"
    }
  ],
  "bytecode": "0x6080604052348015600e575f5ffd5b506104f48061001c5f395ff3fe608060405234801561000f575f5ffd5b5060043610610034575f3560e01c806398f1c34014610038578063e261f1e51461004d575b5f5ffd5b61004b610046366004610246565b61007a565b005b61006061005b36600461030c565b61016f565b604051610071959493929190610323565b60405180910390f35b5f83815260208190526040902054156100d95760405162461bcd60e51b815260206004820152601860248201527f4c616e6420616c72656164792072656769737465726564210000000000000000604482015260640160405180910390fd5b6040805160a08101825284815260208082018581528284018590523360608401525f608084018190528781529182905292902081518155915190919060018201906101249082610403565b50604082015160028201556060820151600390910180546080909301511515600160a01b026001600160a81b03199093166001600160a01b0390921691909117919091179055505050565b5f60208190529081526040902080546001820180549192916101909061037f565b80601f01602080910402602001604051908101604052809291908181526020018280546101bc9061037f565b80156102075780601f106101de57610100808354040283529160200191610207565b820191905f5260205f20905b8154815290600101906020018083116101ea57829003601f168201915b5050505060028301546003909301549192916001600160a01b0381169150600160a01b900460ff1685565b634e487b7160e01b5f52604160045260245ffd5b5f5f5f60608486031215610258575f5ffd5b83359250602084013567ffffffffffffffff811115610275575f5ffd5b8401601f81018613610285575f5ffd5b803567ffffffffffffffff81111561029f5761029f610232565b604051601f8201601f19908116603f0116810167ffffffffffffffff811182821017156102ce576102ce610232565b6040528181528282016020018810156102e5575f5ffd5b816020840160208301375f9181016020019190915293969395505050506040919091013590565b5f6020828403121561031c575f5ffd5b5035919050565b85815260a060208201525f85518060a0840152806020880160c085015e5f60c082850181019190915260408401969096526001600160a01b03949094166060830152509015156080820152601f909101601f1916010192915050565b600181811c9082168061039357607f821691505b6020821081036103b157634e487b7160e01b5f52602260045260245ffd5b50919050565b601f8211156103fe57805f5260205f20601f840160051c810160208510156103dc5750805b601f840160051c820191505b818110156103fb575f81556001016103e8565b50505b505050565b815167ffffffffffffffff81111561041d5761041d610232565b6104318161042b845461037f565b846103b7565b6020601f821160018114610463575f831561044c5750848201515b5f19600385901b1c1916600184901b1784556103fb565b5f84815260208120601f198516915b828110156104925787850151825560209485019460019092019101610472565b50848210156104af57868401515f19600387901b60f8161c191681555b50505050600190811b0190555056fea2646970667358221220a10ab911a914d0faab99d9b70dca84e256d07e35fb70ea10eb18caad7614779264736f6c634300081c0033",
  "linkReferences": {},
  "deployedLinkReferences": {},
  "immutableReferences": {},
  "inputSourceName": "project/contracts/LandRegistry.sol",
  "buildInfoId": "solc-0_8_28-49be43ee5d48f448be36dfb42479af42765ee3ee"
}